{
  "contractName": "MerkleProof",
  "abi": [
    {
      "inputs": [
        {
          "internalType": "bytes32",
          "name": "root",
          "type": "bytes32"
        },
        {
          "internalType": "bytes32",
          "name": "leaf",
          "type": "bytes32"
        },
        {
          "internalType": "bytes32[]",
          "name": "proof",
          "type": "bytes32[]"
        }
      ],
      "name": "verify",
      "outputs": [
        {
          "internalType": "bool",
          "name": "",
          "type": "bool"
        }
      ],
      "stateMutability": "view",
      "type": "function",
      "constant": true
    }
  ],
  "bytecode": "0x608060405234801561001057600080fd5b5061025c806100206000396000f3fe608060405234801561001057600080fd5b506004361061002b5760003560e01c80633423e54814610030575b600080fd5b61004361003e366004610115565b610057565b604051901515815260200160405180910390f35b600082815b835181101561010a57600084828151811061008757634e487b7160e01b600052603260045260246000fd5b60200260200101519050808310156100ca5760408051602081018590529081018290526060016040516020818303038152906040528051906020012092506100f7565b60408051602081018390529081018490526060016040516020818303038152906040528051906020012092505b5080610102816101e9565b91505061005c565b509093149392505050565b600080600060608486031215610129578283fd5b833592506020808501359250604085013567ffffffffffffffff8082111561014f578384fd5b818701915087601f830112610162578384fd5b81358181111561017457610174610210565b838102604051601f19603f8301168101818110858211171561019857610198610210565b604052828152858101935084860182860187018c10156101b6578788fd5b8795505b838610156101d85780358552600195909501949386019386016101ba565b508096505050505050509250925092565b600060001982141561020957634e487b7160e01b81526011600452602481fd5b5060010190565b634e487b7160e01b600052604160045260246000fdfea2646970667358221220d3d90bf4e1b2b70044158549e43fad962a1f051a0d3b6c9581c4fe0311bc3f7264736f6c63430008020033",
  "immutableReferences": {},
  "source": "// SPDX-License-Identifier: GPL-3.0-or-later\r\npragma solidity >=0.5.16 <0.9.0;\r\npragma experimental ABIEncoderV2;\r\n\r\ncontract MerkleProof {\r\n  function verify(bytes32 root, bytes32 leaf,bytes32[] memory proof) public view returns (bool)\r\n  {\r\n    bytes32 computedHash = leaf;\r\n    for (uint256 i = 0; i < proof.length; i++) {\r\n      bytes32 proofElement = proof[i];\r\n      if (computedHash < proofElement) {\r\n        computedHash = keccak256(abi.encodePacked(computedHash, proofElement));\r\n      } else {\r\n        computedHash = keccak256(abi.encodePacked(proofElement, computedHash));\r\n      }\r\n    }\r\n    return computedHash == root;\r\n  }\r\n}\r\n  \r\n",
  "sourcePath": "C:\\Users\\Quoc Bao\\OneDrive - VLG\\Desktop\\supply_chain_application\\contracts\\Verify.sol",
  "compiler": {
    "name": "solc",
    "version": "0.8.2+commit.661d1103.Emscripten.clang"
  },
  "schemaVersion": "3.4.6",
  "updatedAt": "2022-06-03T15:01:39.515Z",
  "networkType": "ethereum",
  "devdoc": {
    "kind": "dev",
    "methods": {},
    "version": 1
  },
  "userdoc": {
    "kind": "user",
    "methods": {},
    "version": 1
  }
}