{
  "contractName": "MTRootHash",
  "abi": [
    {
      "inputs": [],
      "name": "getOwner",
      "outputs": [
        {
          "internalType": "address",
          "name": "",
          "type": "address"
        }
      ],
      "stateMutability": "view",
      "type": "function",
      "constant": true
    },
    {
      "inputs": [],
      "name": "isOwner",
      "outputs": [
        {
          "internalType": "bool",
          "name": "",
          "type": "bool"
        }
      ],
      "stateMutability": "view",
      "type": "function",
      "constant": true
    },
    {
      "inputs": [],
      "name": "owner",
      "outputs": [
        {
          "internalType": "address",
          "name": "",
          "type": "address"
        }
      ],
      "stateMutability": "view",
      "type": "function",
      "constant": true
    },
    {
      "inputs": [
        {
          "internalType": "address",
          "name": "_owner",
          "type": "address"
        }
      ],
      "name": "setOwner",
      "outputs": [
        {
          "internalType": "address",
          "name": "",
          "type": "address"
        }
      ],
      "stateMutability": "nonpayable",
      "type": "function"
    },
    {
      "inputs": [
        {
          "internalType": "bytes32",
          "name": "_MTRoot",
          "type": "bytes32"
        }
      ],
      "name": "setMTRoot",
      "outputs": [],
      "stateMutability": "nonpayable",
      "type": "function"
    },
    {
      "inputs": [],
      "name": "getMTRoot",
      "outputs": [
        {
          "internalType": "bytes32",
          "name": "",
          "type": "bytes32"
        }
      ],
      "stateMutability": "view",
      "type": "function",
      "constant": true
    }
  ],
  "bytecode": "0x608060405234801561001057600080fd5b50600080546001600160a01b03191633179055610208806100326000396000f3fe608060405234801561001057600080fd5b50600436106100625760003560e01c8063034b50f01461006757806313af40351461007c578063893d20e8146100ca5780638da5cb5b146100db5780638f32d59b146100ee578063f4b1b80614610112575b600080fd5b61007a6100753660046101ba565b610123565b005b6100ad61008a36600461018c565b600080546001600160a01b0319166001600160a01b039290921691909117815590565b6040516001600160a01b0390911681526020015b60405180910390f35b6000546001600160a01b03166100ad565b6000546100ad906001600160a01b031681565b6101026000546001600160a01b0316331490565b60405190151581526020016100c1565b6001546040519081526020016100c1565b6101376000546001600160a01b0316331490565b6101875760405162461bcd60e51b815260206004820181905260248201527f4f776e61626c653a2063616c6c6572206973206e6f7420746865206f776e6572604482015260640160405180910390fd5b600155565b60006020828403121561019d578081fd5b81356001600160a01b03811681146101b3578182fd5b9392505050565b6000602082840312156101cb578081fd5b503591905056fea2646970667358221220ab34c2fb51c9635bcd1fe364b91165ae1e57135f0702f19d9c8692007f836a4a64736f6c63430008020033",
  "immutableReferences": {},
  "source": "// SPDX-License-Identifier: MIT\r\npragma solidity >=0.5.16 <= 0.9.0;\r\nimport \"./Ownable.sol\";\r\npragma experimental ABIEncoderV2;\r\n\r\ncontract MTRootHash is Ownable\r\n{ \r\n    bytes32 MTRoot;\r\n\r\n    function setMTRoot(bytes32 _MTRoot) public onlyOwner {\r\n        MTRoot = _MTRoot;\r\n    }\r\n    function getMTRoot() public view returns(bytes32){\r\n        return MTRoot;\r\n    }\r\n}",
  "sourcePath": "C:\\Users\\Quoc Bao\\OneDrive - VLG\\Desktop\\supply_chain_application\\contracts\\Root.sol",
  "compiler": {
    "name": "solc",
    "version": "0.8.2+commit.661d1103.Emscripten.clang"
  },
  "schemaVersion": "3.4.6",
  "updatedAt": "2022-06-14T08:22:22.469Z",
  "networkType": "ethereum",
  "devdoc": {
    "kind": "dev",
    "methods": {},
    "version": 1
  },
  "userdoc": {
    "kind": "user",
    "methods": {},
    "version": 1
  }
}