{
  "contractName": "Ownable",
  "abi": [
    {
      "inputs": [],
      "stateMutability": "nonpayable",
      "type": "constructor"
    },
    {
      "inputs": [],
      "name": "owner",
      "outputs": [
        {
          "internalType": "address",
          "name": "",
          "type": "address"
        }
      ],
      "stateMutability": "view",
      "type": "function",
      "constant": true
    },
    {
      "inputs": [
        {
          "internalType": "address",
          "name": "_owner",
          "type": "address"
        }
      ],
      "name": "setOwner",
      "outputs": [
        {
          "internalType": "address",
          "name": "",
          "type": "address"
        }
      ],
      "stateMutability": "nonpayable",
      "type": "function"
    },
    {
      "inputs": [],
      "name": "getOwner",
      "outputs": [
        {
          "internalType": "address",
          "name": "",
          "type": "address"
        }
      ],
      "stateMutability": "view",
      "type": "function",
      "constant": true
    },
    {
      "inputs": [],
      "name": "isOwner",
      "outputs": [
        {
          "internalType": "bool",
          "name": "",
          "type": "bool"
        }
      ],
      "stateMutability": "view",
      "type": "function",
      "constant": true
    }
  ],
  "bytecode": "0x608060405234801561001057600080fd5b50600080546001600160a01b0319163317905561014b806100326000396000f3fe608060405234801561001057600080fd5b506004361061004c5760003560e01c806313af403514610051578063893d20e81461009f5780638da5cb5b146100b05780638f32d59b146100c3575b600080fd5b61008261005f3660046100e7565b600080546001600160a01b0319166001600160a01b039290921691909117815590565b6040516001600160a01b0390911681526020015b60405180910390f35b6000546001600160a01b0316610082565b600054610082906001600160a01b031681565b6100d76000546001600160a01b0316331490565b6040519015158152602001610096565b6000602082840312156100f8578081fd5b81356001600160a01b038116811461010e578182fd5b939250505056fea26469706673582212205e4e36be37bee55213a535b26159b4c7835ac761089e30d2c66df57a01b7f01564736f6c63430008020033",
  "immutableReferences": {},
  "source": "// SPDX-License-Identifier: MIT\r\npragma solidity >=0.5.16 <= 0.9.0;\r\n\r\ncontract Ownable {\r\n    address public owner;\r\n\r\n    constructor () public {\r\n        owner = msg.sender;\r\n    }\r\n\r\n    modifier onlyOwner() {\r\n        require(isOwner(), \"Ownable: caller is not the owner\");\r\n        _;\r\n    }\r\n    function setOwner(address _owner) public returns (address){\r\n        owner = _owner;\r\n    }\r\n    function getOwner() public view returns (address){\r\n        return owner;\r\n    }\r\n\r\n    function isOwner() public view returns (bool) {\r\n        return (msg.sender == owner);\r\n    }\r\n}\r\n",
  "sourcePath": "C:\\Users\\Quoc Bao\\OneDrive - VLG\\Desktop\\supply_chain_application\\contracts\\Ownable.sol",
  "compiler": {
    "name": "solc",
    "version": "0.8.2+commit.661d1103.Emscripten.clang"
  },
  "schemaVersion": "3.4.6",
  "updatedAt": "2022-06-14T08:22:26.933Z",
  "networkType": "ethereum",
  "devdoc": {
    "kind": "dev",
    "methods": {},
    "version": 1
  },
  "userdoc": {
    "kind": "user",
    "methods": {},
    "version": 1
  }
}